:020000040800F2
:10000000080C0020D5010008C91600088D12000850
:10001000C516000819050008DD16000800000000DC
:10002000000000000000000000000000D1160008E1
:100030001D05000800000000CD160008D5160008B8
:10004000EF010008EF010008EF010008EF010008D0
:10005000EF010008EF010008EF010008EF010008C0
:1000600021050008EF010008EF010008EF0100087A
:10007000EF010008EF010008EF010008EF010008A0
:10008000EF010008EF010008EF010008EF01000890
:10009000EF010008EF010008EF010008EF01000880
:1000A000EF010008EF010008EF010008EF01000870
:1000B000EF010008EF010008EF010008EF01000860
:1000C000EF010008EF010008EF010008EF01000850
:1000D000EF010008EF010008EF010008EF01000840
:1000E000EF010008EF010008EF010008EF01000830
:1000F000EF010008EF010008EF010008EF01000820
:10010000EF010008EF010008EF010008EF0100080F
:10011000EF010008EF010008EF010008EF010008FF
:10012000EF010008EF010008EF010008EF010008EF
:1001300000F002F800F03FF80AA090E8000C8244BA
:100140008344AAF10107DA4501D100F034F8AFF297
:10015000090EBAE80F0013F0010F18BFFB1A43F0A5
:1001600001031847CC8A0000EC8A0000103A24BF33
:1001700078C878C1FAD8520724BF30C830C144BF0C
:1001800004680C607047000000230024002500264E
:10019000103A28BF78C1FBD8520728BF30C148BFEA
:1001A0000B607047642900F07D80002070471FB508
:1001B0001FBD10B510BD00F074F91146FFF7F7FF31
:1001C00001F096FA00F092F903B4FFF7F2FF03BCD6
:1001D00000F09AF90948804709480047FEE7FEE722
:1001E000FEE7FEE7FEE7FEE7FEE7FEE7FEE7FEE7E7
:1001F00004480549054A064B70470000D916000817
:100200003101000808060020080C00200808002022
:10021000080800200FB41CB5074B06AA7B446946AA
:100220000090059800F025F90020694600F034F9A7
:100230001CBC5DF814FB0000790200002DE9F041C0
:100240000E460446002020622046E168884730B30D
:10025000252805D0D4E901219047206A401CF2E707
:10026000E168204600278847050018D0A5F1410025
:10027000192802D820354FF4006732462946204617
:100280002760FFF78FFF40B1012804D0F61D26F04C
:1002900007060836D8E7361DD6E72846DAE7206A8B
:1002A000BDE8F0812DE9F04106460024106875296B
:1002B000314616A510D0AFF30080002802DA404284
:1002C00013A507E031688A0701D512A502E04907A6
:1002D00004D511A5012401E0AFF3008000210A221A
:1002E00006F1240709E0B0FBF2FCB0FBF2F302FBDD
:1002F0001C00303078541846491C0028F3D123469E
:100300002A463046BDE8F04100F054B80000000035
:100310002D0000002B000000200000004FF0000224
:100320000429C0F0128010F0030C00F01B80CCF107
:10033000040CBCF1020F18BF00F8012BA8BF20F875
:10034000022BA1EB0C0100F00DB85FEAC17C24BFC9
:1003500000F8012B00F8012B48BF00F8012B704773
:100360004FF0000200B5134694469646203922BF4E
:10037000A0E80C50A0E80C50B1F12001BFF4F7AF99
:10038000090728BFA0E80C5048BF0CC05DF804EB7B
:10039000890028BF40F8042B08BF704748BF20F8E9
:1003A000022B11F0804F18BF00F8012B70477047E7
:1003B000704770472DE9F0470D469946924604462E
:1003C00000F124080168880604D5E06921F01001D5
:1003D000216000E00120A84201DD471B00E000276A
:1003E000A1697A1902EB0900081AA0612078C006F9
:1003F00002D42046AFF30080002608E0D4E90121B2
:100400001AF806009047206A401C761C20624E4570
:10041000F4DB2078C0060AD52046AFF3008006E062
:10042000D4E9012130209047206A401C2062381E08
:10043000A7F10107F4DC07E0D4E9012118F8050071
:100440009047206A401C2062281EA5F10105F3DCBC
:100450002046AFF300802078000602D50220BDE8D8
:10046000F0870120FBE7000001694A1C026108785F
:10047000704700B58FB0CDE90131002105910549E4
:100480007944CDE9031011466846FFF7D7FE0FB057
:1004900000BD0000E5FFFFFF0A6802F8010B0A60DB
:1004A0007047754600F02CF8AE4605006946534685
:1004B00020F00700854618B020B5FFF799FEBDE88B
:1004C00020404FF000064FF000074FF000084FF0BB
:1004D000000BAC46ACE8C009ACE8C009ACE8C00908
:1004E000ACE8C00921F007018D46704710B50446FD
:1004F000AFF300802046BDE81040FFF765BE000066
:10050000004870476000002001491820ABBEFEE79C
:100510002600020070470000FEE700007047000060
:10052000042000F029B80000B0B5044600F034F90A
:10053000054640F25400C2F200000078611C18BF6A
:10054000044400BF00F028F9401BA042FAD3B0BD1C
:1005500010B500F021F940F26414C2F200042168E1
:10056000401AC82838BF10BD4020012101F0B8F85A
:1005700000F012F9206010BD40F21441C4F20101F4
:100580000A68024214BF08607047FFF7E1BF00002D
:100590002DE9F04F82B0D1F800C0BCF1000F00F09F
:1005A000F180A0F1804241F60045A2F58432C4F208
:1005B000010540F2004E4FEAB2240627A842C4F2D9
:1005C000010E08BF0527052C4FF000044FF001086D
:1005D0004FF00F034FF0000A4FF0000B38BF4FEA07
:1005E000B22700970AE000BFD1F800C00AF1010A63
:1005F0003CFA0AF204F1040400F0C48008FA0AF993
:100600001CEA090FF0D04E684FF6FF72C1F21002DB
:10061000964211DC122E55D8DFE806F0340A444821
:10062000545454545454545454545454544C5000EA
:10063000D1F80CB046E000BF4FF6FF72C1F22102C4
:1006400096420FDC0022C1F2110296421AD000221B
:10065000C1F21202964215D00022C1F22102964246
:1006600010D02FE00022C1F2220296420AD00022CE
:10067000C1F23102964205D00022C1F23202964206
:1006800020D100BF8A684AB1012A14BFC0F8149073
:10069000C0F810904FF0080B14E000BF4FF0040BAF
:1006A00010E000BFCA6802F1080B0BE04FF0000B2E
:1006B00008E000BFCA6802F1040B03E0CA6802F157
:1006C0000C0B00BF22460646BAF1080F24BF203AA1
:1006D0000436376803FA02F5AF430BFA02F23A43E5
:1006E0003260CA79D2067FF57FAF41F21807C4F2B3
:1006F00002073A684FF6084342F001023A603A684E
:10070000CFF6FF7302F001020192019A2AF0030270
:1007100072440F25D75804F00C06B540AF43009D36
:1007200005FA06F63743D7504E6840F20C45F20200
:10073000DEF8082054BF22EA090242EA0902CEF894
:100740000820C4F201052A68B70254BF22EA090250
:1007500042EA09022A60DEF80420B70354BF22EA05
:10076000090242EA0902CEF804200F23DEF8002035
:10077000F70354BF22EA090242EA0902CEF8002038
:1007800032E700BF02B0BDE8F08F0000002A08BFCA
:10079000090401617047000040F20060C2F20000ED
:1007A0000068704770B5B8B3044690F83D0028B9AA
:1007B000002084F83C00204600F09AF9242084F8B8
:1007C0003D002068016821F001010160016841F4E9
:1007D00000410160016821F40041016000F052FB1A
:1007E00048F28041C0F21E0140F60013D4F804E044
:1007F00088424FF00001C0F23D0348F2A16C4FF077
:10080000000238BF01219842C0F2010C38BF01221A
:10081000E64538BF0A460AB1012070BD4DF6836136
:10082000C4F21B31A0FB01122168950C4B684FF4F8
:10083000967623F03F0343EA9243754344F6D3563A
:100840004B60C1F262060B6AA5FB0656B50923F0A0
:100850003F03E64538BF950C6A1C1A430A62CA6911
:1008600048F2A0664CF6FF73C0F20106B64522EAD4
:1008700003020BD801384FEA4E03B0FBF3F001300E
:100880006FF31F30042898BF04201EE0A3680138CE
:1008900063B119230EFB03F3B0FBF3F001306FF3E8
:1008A0001F3078B100F5804008E000BF0EEB4E032A
:1008B000B0FBF3F001306FF31F3028B100F50040BA
:1008C00003E000BF012000E001201043C861086878
:1008D000D4E9072320F0C00010431843086088685B
:1008E00048F2FF3204F10C0690434CCE18431043FB
:1008F000A5698860C86820F0FF0030432843C860BD
:10090000086840F00100086000202021206484F87D
:100910003D10206384F83E0070BD00002DE9F043D7
:1009200083B01E46174689460446FFF735FF94F804
:100930003D10202920D10546206800BF8169890724
:1009400016D5FFF729FF411B20681A29F6D38169C4
:100950008907F3D500202021206384F83D1084F816
:100960003E00216C41F02001216484F83C0003E04A
:1009700094F83C10012903D1022003B0BDE8F083B4
:10098000012184F83C100168C90703D1016841F0D6
:1009900001010160016840F2020821F40061016078
:1009A000212184F83D10102184F83E10002121649B
:1009B00067626685618DC0F201082185A8F1021188
:1009C000E162E16A0A9E11F5803F18BF01291DD13D
:1009D000016841F48071016020464FF0011100224E
:1009E0003346009500F0B4FC50B120680068C005A3
:1009F00044BF4FF400702064012003B0BDE8F083D1
:100A00002069B0F5804F07D1FE2015E00829DFD01E
:100A1000216B1229DCD0DFE7062000EAD91021681B
:100A2000F030086108F10601204632462B4600F0FE
:100A300079FD0028E0D1FF20216800EA0900086163
:100A40002046414632462B4600F06CFD0028D3D1AB
:100A5000002002902068416902918069029002980A
:100A600006E000BF204631462A4600F011FC18BBC4
:100A7000208D68B3204631462A4600F0C3FDD8B920
:100A8000606A2168024612F8013B0B616262628D66
:100A9000013A6285228D531E23854F697F07E1D578
:100AA0001B04DFD0437802300B616062608D013837
:100AB0006085901E2085D5E7206C04289CD1206895
:100AC000016841F400710160012003B0BDE8F083CA
:100AD0002068016841F400710160202084F83D0025
:100AE000002084F83E0084F83C0003B0BDE8F083A9
:100AF00010B586B045F200410068C4F20001002242
:100B00008842049202D006B010BD00BF41F2180422
:100B1000C4F20204206840F008002060206800F061
:100B2000080001900198C020029012200390032039
:100B3000059001F5384002A9FFF72AFD606840F4EE
:100B400000106060606800F400100190019806B029
:100B500010BD000040F2540040F20061C2F20000FB
:100B6000C2F2000100780A68104408607047000073
:100B700080B542F20000C4F20200016841F01001A9
:100B80000160032000F08EF80F2000F005F800F05F
:100B900027F8002080BD000070B540F25406C2F274
:100BA000000640F25C013278C2F200014FF47A7321
:100BB0000968B3FBF2F20446B1FBF2F1084600F01B
:100BC0004FFB0F2C4FF0010508D838B94FF0FF301C
:100BD00021460022002500F039F87460284670BDD7
:100BE00082B041F21800C4F202000168042241F010
:100BF00001010160016801F0010101910199416861
:100C000041F080514160406800F0805000900098B1
:100C10000420C4F20100016862F31A61016002B0AD
:100C200070470000002848BF7047C1B200F01F00A5
:100C3000012202FA00F04EF20012CEF2000242EA65
:100C4000D10121F0030108607047000010B54EF695
:100C50000C5CCEF2000CDCF80030C3F3022E8EF0F8
:100C60000704042C28BF0424BEF103034FF0FF3E09
:100C70000EFA04F438BF0023A14399400EFA03F39F
:100C80009A43114300F00F0200F160430901043A56
:100C900003F564436244002848BF02F10C03197055
:100CA00010BD00004EF60C51CEF200010A684FF65E
:100CB000FF031A4060F30A2242F0806040F0FD70AA
:100CC000086070472DE9F04381B0002800F085806E
:100CD00042F20008C4F202080446D8F800000D46AB
:100CE00000F0070088420CD2D8F8000020F007007E
:100CF0002843C8F80000D8F8000000F00700A84218
:100D00006BD1206841F204098107C4F2020917D5AA
:100D1000410705D5D9F8001041F4E061C9F8001089
:100D2000010705D5D9F8001041F46051C9F8001049
:100D3000D9F80010A26821F0F0011143C9F80010A1
:100D4000C00741D1D8F8000000F00700A8420CD934
:100D5000D8F8000020F007002843C8F80000D8F8B1
:100D6000000000F00700A84237D12068410707D5EE
:100D7000D9F80010E26821F4E0611143C9F80010CD
:100D8000000708D5D9F80000216920F4605040EA36
:100D9000C100C9F80000D9F8002002F00C000828B2
:100DA00041F20020C0F27A0050D142F68263C2F3D1
:100DB0008341C0F60003595CD2033BD440F60010D7
:100DC000C0F23D00484341E0606802280AD0012893
:100DD0002AD159F8041C890308D4012001B0BDE8C8
:100DE000F08300BF59F8041C8901F6D5D9F800102A
:100DF00021F003010843C9F80000FFF7CDFC0646C7
:100E000041F28837D9F80000616800F00C00B0EBBF
:100E1000810F97D0FFF7C0FC801BB842F2D90320A6
:100E200001B0BDE8F08300BF59F8041C8907D4D590
:100E3000DCE700BFD9F8002042F68063C2F34042ED
:100E4000C0F600039A5C4843B0FBF2F0D9F80010FA
:100E500042F66862C1F30311C0F60002515C40F231
:100E60005C0220FA01F140F25800C2F20000006872
:100E7000C2F200021160FFF78FFE002001B0BDE852
:100E8000F083000040F25C0041F20401C2F2000075
:100E9000C4F202010068096842F67862C1F30221D7
:100EA000C0F60002515CC840704700002DE9F041D7
:100EB00082B0002868D00446007841F20006C007DE
:100EC000C4F2020625D0706800F00C0004281BD084
:100ED000706800F00C00082802D17068C00313D4B9
:100EE0006068002800F06881B0F5A02F00F07C81D8
:100EF000B0F5803F00F07C81306820F480303060B5
:100F0000306820F4802076E13068800301D5606885
:100F1000D0B32078800718D5706810F00C0F07D078
:100F2000706800F00C0008286ED17068C0036BD4A4
:100F30003068800702D52069012825D130686169B1
:100F400020F0F80040EAC1003060207800071FD48C
:100F50002078400732D4E56995B1706800F00C0044
:100F6000082840F08F80012D0ED07068216A00F4AF
:100F700080328A4208D1616A00F47010884203D13D
:100F8000002002B0BDE8F081012002B0BDE8F08190
:100F9000A069002862D00020C4F242200121C0F8DC
:100FA0008014FFF7F9FB0546706A800700F18C801A
:100FB000FFF7F2FB401B0228F6D92AE1F06910F096
:100FC000805808D1F06940F08050F061F06900F07D
:100FD00080500090009847F20007C4F2000738687C
:100FE000C00529D4386840F480703860FFF7D4FB1E
:100FF000054600BF3868C0051ED4FFF7CDFB401B77
:101000006428F7D905E100BF2069002840F20000FC
:10101000C4F2422000F0828001210160FFF7BCFB96
:10102000054600BF306880073FF588AFFFF7B4FB87
:10103000401B0228F6D9ECE0E068002800F0808030
:10104000052800F09780012800F09880306A20F091
:1010500001003062306A20F0040092E00020C4F207
:1010600042200021C0F88014FFF796FB054600BF20
:10107000706A80077FF56CAFFFF78EFB401B02287C
:10108000F6D9C6E00027C4F2422700203866FFF7F1
:1010900083FB022D05460BD13068800140F1BE80F4
:1010A000FFF77AFB401B02284FF00300F4D968E7F2
:1010B000306880017FF564AFFFF76EFB401B0228AC
:1010C0004FF00300F4D95CE740F25C00C2F200008C
:1010D000006844F6D351C1F26201A0FB0101480A45
:1010E000019000BF00BF0198411E002801913FF40C
:1010F0002FAF00BF0198411E002801913FF428AF97
:1011000000BF0198411E002801913FF421AF00BFAC
:101110000198411E00280191E4D119E700210160E6
:10112000FFF73AFB054600BF306880077FF50DAF3B
:10113000FFF732FB401B02284FF00300F4D920E7F1
:10114000306A20F001003062306A20F00400306222
:10115000FFF722FB054641F2883700BF306A80075F
:1011600020D5FFF719FB401BB8424FF00300F5D91B
:1011700007E700BF306A40F004003062306A40F098
:1011800001003062FFF708FB054641F2883700BFD7
:10119000306A800706D4FFF7FFFA401BB842F7D940
:1011A00037E000BFB8F1000F7FF4D5AEF06920F052
:1011B0008050F061CFE600BF306820F480303060AE
:1011C000306820F480203060FFF7E6FA054600BF63
:1011D000306880037FF59DAEFFF7DEFA401B642880
:1011E0004FF00300F4D9CCE6306840F48020306042
:1011F000306840F480303060FFF7CEFA054600BF1B
:10120000306880033FF585AEFFF7C6FA401B6428BF
:10121000F6D9032002B0BDE8F08100BF206AB0F526
:10122000803F05D17168A26821F4003111437160DB
:101230007168626A21F474111143084370600120DF
:101240003866FFF7A9FA0446306880013FF598AE8A
:10125000FFF7A2FA001B02284FF00300F4D990E632
:10126000411E0020B0EB116F1CBF012070474EF2F1
:101270001002CEF2000251604EF62351CEF2000170
:10128000F0230B700721906011607047FEE70000AB
:1012900070B50368044653F8140F400711D40E4686
:1012A000481C29D086BB00BF1868400527D4FFF72B
:1012B00073FA236853F8140F400739D518684007AC
:1012C000F2D5002070BD00BF18684007F9D4186837
:1012D000400514D418684007F3D4186840050ED4AC
:1012E00018684007EDD41868400508D4186840070E
:1012F0004FF0000048BF70BD18684005E4D56FF49A
:1013000080601860042014E0154603E053F8140FC1
:101310004007D6D418684005F1D4FFF73DFA401BCA
:101320002368B042F2D958694007EFD4202000E08A
:10133000202000212022216384F83D2084F83E10E3
:10134000226C10432064012084F83C1070BD000022
:101350002DE9F041054600681E46144601F47F025F
:1013600001338FB242D0DDF81880B2F5803F40F0F3
:10137000878040693840C01BB0FA80F04009A04225
:1013800040F0C8804EB924E040693840C01BB0FA34
:1013900080F04009A04240F0BD80FFF7FDF9A0EBCE
:1013A00008012868B142EFD941693940C91BB1FA37
:1013B00081F14909A142E7D19BE000BF4069384073
:1013C000C01BB0FA80F04009A0424FF0000040F08E
:1013D000A680FFF7E1F9286841693940C91BB1FAD5
:1013E00081F14909A142E9D183E000BFB2F5803F14
:1013F00024D100BF41693940C91BB1FA81F14909C3
:10140000A14240F0878041693940C91BB1FA81F19E
:101410004909A14240F07E8041693940C91BB1FAB7
:1014200081F14909A14275D141693940C91BB1FA1D
:1014300081F14909A142DDD06CE000BF81693940EA
:10144000C91BB1FA81F14909A14263D181693940CF
:10145000C91BB1FA81F14909A1425BD181693940C7
:10146000C91BB1FA81F14909A14253D181693940BF
:10147000C91BB1FA81F14909A142DFD04AE000BF9E
:1014800080693840C01BB0FA80F04009A04241D1C9
:1014900046B923E080693840C01BB0FA80F04009AB
:1014A000A0423BD1FFF778F9A0EB08012868B142D0
:1014B000F0D981693940C91BB1FA81F14909A142CA
:1014C000E8D116E080693840C01BB0FA80F04009CE
:1014D000A0424FF0000018BFBDE8F081FFF75CF9B3
:1014E000286881693940C91BB1FA81F14909A142D3
:1014F000E8D100202021286385F83D1085F83E00C2
:10150000296C41F02001296485F83C000120BDE8E8
:10151000F08100BF0020BDE8F08100BF0020BDE8E1
:10152000F0810000F0B581B0044600681D464369B3
:101530008FB203EA0701B94202D1002001B0F0BD29
:1015400041691646013201F4806125D0002940D15D
:10155000CEB100BFFFF720F9411B2068B14203D98B
:1015600041693940B9424BD141693940B942E4D06F
:1015700041694905EED52CE041693940B942DCD0DA
:101580004169490525D4FFF707F9206841693940C9
:10159000B942F1D0202024E0D9B941693940B9429B
:1015A000CBD04169490514D441693940B942C4D00E
:1015B000416949050DD441693940B942BDD04169FD
:1015C000490506D441693940B942B6D04169490557
:1015D000E3D5016841F4007101606FF480614161FD
:1015E000042000212022216384F83D2084F83E104D
:1015F000226C1043206484F83C10012001B0F0BD3F
:101600002020EEE770B50368044653F8140F000677
:1016100011D40E46481C29D086BB00BF186840056F
:1016200027D4FFF7B9F8236853F8140F000639D50B
:1016300018680006F2D5002070BD00BF18680006CB
:10164000F9D41868400514D418680006F3D4186853
:1016500040050ED418680006EDD41868400508D47B
:10166000186800064FF0000048BF70BD18684005BC
:10167000E4D56FF480601860042014E0154603E0A0
:1016800053F8140F0006D6D418684005F1D4FFF7BC
:1016900083F8401B2368B042F2D958690006EFD4A2
:1016A000202000E0202000212022216384F83D201A
:1016B00084F83E10226C10432064012084F83C1012
:1016C00070BD0000FEE70000FEE70000704700006C
:1016D00070470000FFF73EBA70470000FEE70000C9
:1016E0000A46014641F20000C4F20100FFF74EB87D
:1016F00092B0FFF73DFA00240120CDE90D44CDE979
:101700000B4408900C904FF4E0104FF48031022508
:10171000119008A8CDE90914CDE90F51FFF7C6FBD8
:1017200020B1EFF3108072B6FEE700BF0F20CDE9C5
:1017300003054FF48060CDE9060403A80221059457
:10174000FFF7C0FA20B1EFF3108072B6FEE700BFDA
:10175000002641F218000B96C4F20200016841F223
:10176000000441F0200101600168C4F2010401F0AD
:101770002001039103990168002241F010010160EA
:1017800001684FF4E07701F01001039103990168BB
:1017900041F00801016000684FF4E07100F00800BA
:1017A000039003982046FEF7F1FF042008900020E4
:1017B000C1F2210008ADCDE9090620462946FEF711
:1017C000E7FE0120CDE9090602200B9020462946BC
:1017D0000897FEF7DDFE082000210022FFF736FA09
:1017E0000820FFF71FFA40F2E805C2F20005A4F551
:1017F0003C41284640F8281F41F68021C0F20601EE
:101800004FF48042C0E90116C0E90362C0E90566F1
:10181000C0E90766FEF7C6FF20B1EFF3108072B68D
:10182000FEE700BF40F26819C2F2000905F1280185
:101830004846782200F0E6FD40F200070226C2F298
:1018400000074FF0400800BF484600F045F857F841
:1018500026404846002100228023CDF800800194D4
:1018600000F0D2F8484600F095F99620FEF75CFEAD
:101870000136152EE8D140F2681442F6A068C2F293
:101880000004C0F6000805F108060FF2440900BF85
:10189000204600F021F82046414600F085F9D7E9BE
:1018A000002330464946FEF7B5FC68683346421CC3
:1018B0007E28C8BF6FF00902298802F10A006A6019
:1018C00082B2204600F098F8204600F063F9DFE786
:1018D00025642C256400000080B5016890F838204C
:1018E000097C406B5143C900FEF718FD80BD000024
:1018F00070B582B0002B7CD090F88CC0BCF1000F8A
:1019000077D0DDF818C0022B08D3BCF1030F39D013
:10191000BCF1020F02D1C91A013102E05FEACC7CAE
:1019200032D1B0F84CC0944563D8B0F84EC094455D
:101930005FD9B0F848C0B0F84AE08CB2E518634609
:10194000AEB2744538BF0B46AE4208BF0B4699B2E3
:1019500074452B4638BFAEF10103AE4208BF334693
:10196000714546D29BB2634543D9614588BF8C46D9
:10197000734538BF9E46AEEB0C034FF0000E614638
:1019800031E000BFD21A0132B0F848608E4230D840
:10199000B0F84A608E422CD9B0F84CC0B0F84EE096
:1019A00094B2E5186346AEB2744538BF1346AE42F2
:1019B00008BF13469AB274452B4638BFAEF10103F7
:1019C000AE4208BF3346724513D29BB2634510D96D
:1019D000624588BF9446734538BF9E46AEEB0C0304
:1019E0004FF0010E6246066B9BB2B668CDF800E080
:1019F000B04702B070BD000042F6BD0CC0F6000C4E
:101A0000C0F804C000F0D6B92DE9F04F89B0129C9F
:101A100005465818174622441FFA80FB984696B28E
:101A200028463A465B460791009600F07FF800286A
:101A300018BF002C02D109B0BDE8F08FB8F1000F3B
:101A40005CD008F10700139E80B2C0080390CDE976
:101A5000018B0BE0DDE9018BDDE9046485F892A0E0
:101A60000398013C069F06442004E4D0781C1FFA2A
:101A700087F9079995F892A006901FFA80FC2846EE
:101A80004A465B46CDF800C000F050F80028E7D089
:101A90000594BAFA8AF03146079C40094FF0010BD1
:101AA00046468846089004911BE000BF85F89200E6
:101AB000A1B228464A46012300270097FFF718FFE6
:101AC0001BF07F004FF4FF7000EA4B0BA6F10106FC
:101AD00004F1010404BF08F101084FF0010B3004C8
:101AE000B8D098F800001BEA000F5046DED195F8F8
:101AF000910000280898E3D1D8E700BF07F1010959
:101B0000079995F892801FFA89F6BAB228465B4683
:101B1000009600F00BF80028A4F1010418BF85F826
:101B2000928020044F46E9D185E7000010B5B0F857
:101B30004E40DDF808C0B0F84CE0944206D962454A
:101B40000AD8E64524BF002010BD05E062454FF0ED
:101B500000021DD9E6451BD2B0F84A20B0F8480073
:101B60008A420BD9002299424FF0000188BF01211F
:101B7000984238BF012241EA020010BD002299427A
:101B80004FF0000188BF0121984238BF01220A406E
:101B9000104610BD10B5044600F0BEFD2046BDE85D
:101BA000104000F061BE00002DE9F04F81B0044606
:101BB000806D88425DD0A16508780D4684F8740078
:101BC000487884F87500887884F87600C87884F8B6
:101BD0007700087984F87800487984F87900887962
:101BE00084F87A00C87984F87B00087A84F87C004D
:101BF000487A84F87D0091F90A9084F87E90C87A3A
:101C000084F87F0091F90C80084684F8808091F96F
:101C10000D7084F8817091F90E6084F8826091F9FA
:101C20000FB084F883B091F910A0112184F884A03A
:101C300000F0E4FBA4F886002846132100F0DEFB48
:101C4000A4F888002846152100F0D8FBA4F88A00E3
:101C500094F88D0084F88E7084F88F6048B1012864
:101C60000AD15F45B8BF84F88EB0564501DD84F8CF
:101C70008FA001B0BDE8F08F08EB0900B842C8BFE3
:101C800084F88E004645C246C8BF84F88FA001B0D4
:101C9000BDE8F08F41F6A561C0F60001C16570474F
:101CA000B0B50446049884F8382040F20112A4F834
:101CB000922002680025C4E90B302046A56584F80F
:101CC000395084F86D5084F8915084F88D506163D8
:101CD00090470020CFF6FF70216B20656065496852
:101CE000204688472046FFF7D5FF84F87050B0BDE6
:101CF000B0B582B09C4613460C4642F6D94142F636
:101D0000A122C0F60001C0F600020546CDF800C0D1
:101D100000F0B6FD0DF1070000F0F6FC9DF807207D
:101D200042F291430146C0F6000328460094FFF7B3
:101D3000B7FF02B0B0BD0000022B07D0012B09D0C5
:101D4000002B14BF1044084480B27047401A80B280
:101D5000704700BF801A80B270470000022B07D086
:101D6000012B09D0002B14BF401A104480B27047D9
:101D7000801A80B2704700BF084480B270470000EC
:101D800010B582B0B0F83EE0DDF810C0C46AA2EB36
:101D90000E0292B2CDF800C0A04702B010BD000004
:101DA00080B582B0DDF810C0CDF800C0FFF7E8FFC5
:101DB00002B080BD2DE9F04F81B01F4692460D461E
:101DC00006464FF6FF7801F04BF8726839783046D6
:101DD000904740455ED0A8F101017C1C4FF00009FE
:101DE0001FFA81FB08E000BF8144726814F8011BF0
:101DF0003046904740454FD087B25F45F5D096F8C2
:101E000070205046032A29461DD8DFE802F0030956
:101E10000F1700BFF16D304688475044294612E045
:101E2000F16D30468847291A0CE000BFF16D30464D
:101E30008847AAEB0000294605E000BFF16D304657
:101E4000884741195046A6F86410A6F86600304647
:101E5000394600F06DFA48B10146304600F024F8EA
:101E600096F87010032906D9BEE700BF002096F847
:101E700070100329B8D8DFE801F007090B0300BF91
:101E8000AAEB000AB0E700BF0544ADE78244ABE728
:101E90002D1AA9E74FF000091FFA89F001B0BDE83B
:101EA000F08F0000002070472DE9F04F8BB0834683
:101EB000016600208BF86C009BF878000B784FF0DF
:101EC000FF32082831BF05460131CBF86010A0F180
:101ED000080502FA00F023EA00009BF879308BF83D
:101EE0006C508BF86A005F190E78FCB2082CECB2CB
:101EF00026FA04F60AD34C1CCBF86040C5F108055D
:101F00004978EDB2A9400E43083F21469A409BF81C
:101F1000923026EA020203928BF86B209BF87A201B
:101F20008BF86E30B3FA83F35B098BF86C708BF827
:101F30006F30BC180B78E6B2082EFEB223FA06FC0E
:101F40000BD34E1CCBF86060C7F108074978FFB28D
:101F5000B9404CEA010C083C31469BF87B708BF889
:101F60006C403D190E78EBB2082BE3B226FA03F66B
:101F70000AD3C4F108034C1CCBF860404978DBB2AB
:101F800099400E43083D21469BF87CA04FFA80F90A
:101F90008BF86C500AEB05000B78C4B2082CECB23D
:101FA00023FA04F312D31C46C5F108034D1CCBF8E9
:101FB00060504978DBB299400C4308380294B9F17B
:101FC000010F8BF86C0008DAA2E100BF0293B9F1AF
:101FD000010F8BF86C00C0F29B81511E4FF0FF3057
:101FE000C9B27B1E00FA02F200FA01F1B840DBB27E
:101FF00001272CEA020207FA03F3039F114426EAA1
:1020000000023A449A1A9BF87060BBF8640057B219
:102010004DB229463A463346FFF78EFE8046BBF85E
:10202000660029463A463346ABF86480FFF796FED1
:10203000032EABF866000BD8DFE806F0020E18227C
:1020400003995FFA89F249B208EB020301441FE0E9
:10205000434601461CE000BF039908F1010349B261
:10206000A3EB01085FFA89F1014411E05FFA89F1FD
:1020700008F10103A3EB010803994AB206E000BF8F
:1020800003995FFA89F249B208EB0103411C881AEF
:102090008FB21FFA88F182B29BB258460097FFF7C1
:1020A00045FD002800F034819BF86C30DBF860605F
:1020B000CDF804A04FF0000E4FF0000AABF868E036
:1020C00005E000BF039840B2854280F21B819BF877
:1020D00076C0327803EB0C07D8B2FDB2082D22FA95
:1020E00000F20AD3751CCBF86050C3F10803707876
:1020F000DBB298400243083F2E469BF877308BF8BE
:102100006C70D9193578CCB2082CFCB225FA04F5DC
:1021100009D3741CCBF86040C7F108077078FFB290
:10212000B840054308394FF0FF3404FA0CF022EAB6
:102130000000059004FA03F025EA000004908BF8F3
:102140006C1003E0C8078BF86C30BBD09BF86D00B7
:1021500010B39BF86A00059CA0EB0A01E2B2CBB277
:10216000934269D8641AE1B281420EF1010E61D343
:10217000241AE1B2814253D3241AE1B2814253D3EB
:10218000241AE1B2814253D3241AE1B281420EF102
:10219000040EEDD24EE000BF059C00209BF86A10B3
:1021A000A1EB0A0550BB00BF9BF87090BBF866001E
:1021B0004FFA8AF64FFA8EF731463A464B46CDF83B
:1021C00028E0FFF7CBFDBBF8641080460846314697
:1021D0003A464B46FFF7B0FD9BF86F200146E0B250
:1021E000EBB2984238BF03468BF8922058464246DD
:1021F000CDF80090FFF77CFBDDF828E0E8B2E1B213
:10220000814219D39BF86D00641B0EF1010E4FF053
:10221000000A9BF86A100028A1EB0A05EED1C3E77B
:102220000EF1010E06E000BF0EF1020E02E000BF4B
:102230000EF1030E4FF0000A049A04EB0A018BF82A
:1022400068108BF869E000BF9BF86A009BF870602B
:10225000A0EB010A0A925FFA82F8BBF866205FFAE7
:102260008AF7BBF864004CB24FFA8EF50997B8456F
:10227000079238BF4746069121462A463346F14623
:10228000FFF75AFD0890079821462A463346FFF784
:1022900065FD9BF86E1002468BF89210089958461F
:1022A0003B465C460096FFF723FB0998804507D321
:1022B0000A9A09F1010EA2EB0A020021A346C3E724
:1022C00006980A99266E01EB000A94F86C2084F8AF
:1022D00068A084F869903178531CDFB2A346082FB8
:1022E00021FA02F1CE46FFF42DAF701CCBF860004E
:1022F000C2F108037778DBB207FA03F31943D31F5F
:1023000006461FE79BF86E00DDF804A08BF89200EC
:102310004FF0FF30029A00FA0AF122EA0101AAF115
:102320000102D2B29040084440B20BB0BDE8F08F39
:1023300070B50C46816DFF2C01F1170104D8612C9A
:1023400036D3B0F8880037E0B0F88A000E1835466A
:102350002846002100F052F806442846022100F0E9
:102360004DF8A04205F10405F2D3308840BA0028A8
:102370003ED0A0423ED0B078315A49BAC1B3A14252
:10238000064437D0B078315A49BA89B3A1420644DD
:1023900030D0B078315A49BA51B3A142064429D05D
:1023A000B178705A0E4440BA0028E2D120E000BF54
:1023B000412C02D3B0F8860001444878C0B10A78B5
:1023C000A24219D00144487890B10A78A24213D0B1
:1023D0000144487860B10A78A2420DD0014448789F
:1023E00030B10A78A24207D0014448780028E6D1EB
:1023F000002070BDF01C70BD881C70BD405A00BA32
:10240000000C704710B584B0044640F2C000C2F220
:1024100000004160427042F6946142F60D1242F6AD
:102420002563C0F60001C0F60002C0F60003204696
:10243000FFF75EFC204600F011FA2046002100F074
:1024400019FA2046FFF748FA43F2F971C0F6000185
:102450002046FFF7A9FB42F26410039042F2740099
:10246000C6F64560029044F62010C6F66E10019044
:1024700043F67500C3F2672000906B4620460021AA
:102480000A22FFF7B9FA2046FFF784FB04B010BD1B
:102490002DE9F04102F00704012690F89250A64081
:1024A000022DB44628BF4FF0000CB5F1010E18BF45
:1024B000B646056822F007062D7C476B7543DDF8AC
:1024C0001880ADB23D44B8F1000F294418D013F084
:1024D0000306A3F1010500F0A9800C7844EA0C047E
:1024E00084EA0E07541C14F007040F701CD04FEA46
:1024F0004C0C4FEA4E0E012E23D12B4696E000BF26
:1025000013F00302A3F1010038D00C78012A44EA49
:102510000C0484EA0E0401F8014B25D1034680B275
:102520000328C0F0EF802DE0478F4FF001083944B9
:1025300090F89270012F98BFC44618BFC646012E6E
:10254000DBD00C7844EA0C0484EA0E07941C14F0E7
:1025500007040F7036D04FEA4C0C4FEA4E0E022E95
:102560003DD1023B62E000BF0C78022A44EA0C0431
:1025700084EA0E0401F8014B42D1023B80B20328E9
:10258000C0F0C080081F00BF10F8041F043B41EAE0
:102590000C0181EA0E0101704178827841EA0C0158
:1025A00081EA0E01C478417042EA0C0181EA0E0111
:1025B000817044EA0C0181EA0E011A04C170E3D172
:1025C000A0E000BF478F4FF00108394490F89270A7
:1025D000012F98BFC44618BFC646022EC1D00C7842
:1025E000033244EA0C0484EA0E040C7012F007046F
:1025F000A3F1030310D04FEA4C0C4FEA4E0E15E046
:102600000A78033B42EA0C0282EA0E0201F8012B2F
:1026100080B2032876D3B5E7428F0126114490F8A3
:102620009220012A98BFB44618BFB646AAB2032A20
:1026300038BFBDE8F08101220CE000BF458F90F863
:1026400092602944012E98BF944618BF9646043BD9
:102650001D0457D00D78661C45EA0C0585EA0E0569
:1026600076070D7004D04FEA4C0C4FEA4E0E08E08E
:10267000458F90F892602944012E98BF944618BF68
:1026800096460D78A61C45EA0C0585EA0E057607E8
:102690000D7005D04FEA4C0C4FEA4E0E09E000BF1A
:1026A000458F90F892602944012E98BF944618BF38
:1026B00096460D78E61C45EA0C0585EA0E05760778
:1026C0000D7005D04FEA4C0C4FEA4E0E09E000BFEA
:1026D000458F90F892602944012E98BF944618BF08
:1026E00096460D78043445EA0C0585EA0E0514F08B
:1026F00007040D70A2D04FEA4C0C4FEA4E0E043B7B
:102700001D04A7D1BDE8F081014640F2FC1008226B
:10271000C2F200000A7070472DE9F04F81B0834685
:1027200090F8388000689BF8396090F81190002587
:1027300001274FF6F87A00BFDBF80000F2B2037C05
:10274000DBF8340005FB03F101EA0A01441858469E
:102750000021009400F06EF8474506D20136F0B231
:102760000835484507F10107E6D301B0BDE8F08F11
:10277000B0B590F838100568CB00838795F810C085
:1027800090F8393095F811E04FEACC0CDA005C187B
:10279000A0F83AC0C287744588BFAEEB0301194464
:1027A000C900A0F84020A0F8421069694164B0BD9A
:1027B00070B582B00446216CB0F84400E164B4F80E
:1027C0005010B4F85420B4F85230B4F856500026E3
:1027D000A4F84A002046A4F848600095FFF7A6F93F
:1027E00020B3B4F84810B4F850000122814284F8B4
:1027F0008C2038BFA4F84800B4F84A10B4F852004E
:10280000814288BFA4F84A00B4F84C10B4F85400D0
:10281000814238BFA4F84C00B4F84E10B4F856000A
:10282000814288BFA4F84E0002B070BD84F88C606D
:1028300002B070BD80B582B0DDF810C0D0F808E0FD
:102840008DF805108DF806208DF804306B460F21A9
:102850000122CDF800C0F04702B080BDD0F808C01A
:102860000A21002200236047D0F808C0102100226E
:1028700000236047D0F808C00A460B2100236047B8
:1028800010B54FF47F44DDF808C0A0F82340FF24C2
:102890004FF0000E80F8284000F10804C0F800E076
:1028A00080F826E084E80E50BDE81040AFF30080C9
:1028B000D0F808C0092100220023604700294FF604
:1028C000FF7008BF70470A2918BF0846704700000C
:1028D000D0F810C0192100220023604780B582B0D3
:1028E0008DF807100DF10702012100F003F802B086
:1028F00080BD0000D0F810C013460A46172160477B
:10290000D0F810C01821002200236047F0B581B034
:1029100019291FD018294FF000005DD0172927D1A1
:10292000002A5ED040F2C00CC2F2000C9CF80040BD
:1029300012F00305A2F1010E1CD0194611F8016B2B
:10294000601C0CEB0407012D3E7215D10B4672463C
:1029500025E000BF40F2C002C2F2000250681378C6
:102960005178FF2708320097FDF7D8FFC8B3002041
:1029700001B0F0BD14E000BF5E78C0B2A11C60449D
:10298000022D067204D10233023A08460C4607E0D3
:102990009D78C9B2E01C61440333033A0D720446CA
:1029A0005FFA8EF1032917D3043B0CF1080120468E
:1029B00013F8047FC5B24F55461C5F78F6B28F55A9
:1029C000851C9F78EDB24F55C61CDF78043A043061
:1029D000F6B215068F55EBD140F2C001C2F20001EC
:1029E0000870012001B0F0BDD0F80CC01921002200
:1029F00000236047D0F80CC00A4616210023604728
:102A0000D0F80CC00A46152100236047D0F80CC04E
:102A100013460A4617216047F0B581B00E460446BA
:102A20000DF103050AE000BFA1F11800022817D23A
:102A3000E668204600220023B0473E46374617F896
:102A4000011B1729F0DCA1F11500022814D27278BD
:102A5000E768204600238DF80320B8470236EDE7EB
:102A6000FE2915D17278204629218DF8032000F027
:102A7000DBF90236E2E700BF172909D1707801219E
:102A80008DF8030020462A46FFF7C0FF0236D5E73F
:102A900001B0F0BDD0F80CC018210022002360471F
:102AA000F0B581B0143905292CD804461E461546C8
:102AB000DFE801F0042C16461EBE00BF94F8240087
:102AC0001421FF2804BF782084F82400D4F810C013
:102AD00020462A46334601B0BDE8F040604700BFBB
:102AE00020462946FFF7FAFE012001B0F0BD00BFE5
:102AF00040F2FC50C2F2000000210170012001B040
:102B0000F0BD00BF002001B0F0BD00BF40F2FC5698
:102B1000C2F200063078012802D12046FFF7D8FE25
:102B20002046FFF7EDFE20460021FFF7D7FE2046A6
:102B30002946FFF7D3FE0120307001B0F0BD00BF81
:102B400040F2FC57C2F200073878012802D1204633
:102B5000FFF7BEFE192D7DD320461821324600F026
:102B600067F9A5F11800C1B2192906F118026FD34F
:102B70002046182100F05CF9A5F13000C1B21929F6
:102B800006F1300264D32046182100F051F9A5F176
:102B90004800C1B2192906F1480259D3204618212C
:102BA00000F046F9A5F16000C1B2192906F16002F2
:102BB0004ED32046182100F03BF9A5F17800C1B2B0
:102BC000192906F1780243D32046182100F030F984
:102BD00005F17000C1B2192906F1900238D32046E0
:102BE000182100F025F905F15800C1B2192906F1A4
:102BF000A8022DD32046182100F01AF905F1400053
:102C0000C1B2192906F1C00222D32046182100F0D2
:102C10000FF905F12800C1B2192906F1D80217D31E
:102C20002046182100F004F91035F03612E000BFFC
:102C300040F2FC55C2F200052878012802D1204656
:102C4000FFF746FE00202870012001B0F0BD00BF54
:102C500005461646E9B22046324600F0E9F8002063
:102C60003870012001B0F0BD10B5D0F814C0282193
:102C7000002200230446E047D4F80CC0204614216B
:102C800000220023E04720464B21012200F0CCF82F
:102C9000206829210279204600F0C6F820464B2101
:102CA000002200F0C1F8206829210279204600F0B6
:102CB000BBF820464B21012200F0B6F820682921FC
:102CC00042792046BDE8104000F0AEB88A7C016031
:102CD00080F8222070470000B0B50D46044600F091
:102CE0001FF808B10120B0BD092D0DD00A2D15D156
:102CF0002046FFF7B9FF43F6D771C0F60001204622
:102D0000FFF78AFE0120B0BD44F21801C0F60001B1
:102D10002046FFF7DBFF0120B0BD00BF0020B0BDA3
:102D20002DE9F0410B39044604294FF0000088BF1B
:102D3000BDE8F0811546DFE801F003651323350097
:102D40002046002D07BF44F20C01C0F6000144F2FA
:102D50001101C0F60001FFF75FFE0120BDE8F08120
:102D6000002D51D043F6D071C0F600012046FFF788
:102D700053FE2068C07C84F822000120BDE8F08169
:102D80002046FFF787FE20468121FFF739FE2046C7
:102D90002946FFF72FFE2046FFF726FE0120BDE85B
:102DA000F08100BF20461E46FFF774FE707994F84C
:102DB000221001EBC007204640215FFA87F8FFF799
:102DC0001FFE4FEA181000F110012046FFF718FE11
:102DD00007F00F012046FFF70DFEB07940F0B0017B
:102DE0002046FFF707FE00BF30793268C000C1B24D
:102DF0002046FFF70BFE013D2806F5D12046FFF7E0
:102E0000F3FD0120BDE8F08143F6C971C0F6000171
:102E10002046FFF701FE2068807C84F82200012014
:102E2000BDE8F08101207047D0F814C0002360474E
:102E3000F0B581B017460D460646FFF761FD3046F6
:102E40004021FFF74BFD3469304617212A463B46A7
:102E5000A047304601B0BDE8F040FFF739BD0000A3
:102E6000002180F8261070470000000000000000DC
:102E70000102030406070809000000000102030420
:102E8000010202030405060708090A0B0C0D0E0FC8
:102E90001010000071270008B1270008A11D0008CC
:102EA000BF0203020304010204060A00FE07FE0734
:102EB00000017602F9093C2007D6F8F92300210A1F
:102EC000D6F891B43B985300220BD6F8932CC992B4
:102ED0009C37002310D6F8932C890629890629C926
:102EE000929C00240DD6F891704AC23189C69C028A
:102EF000250DD6F8A3A429092B51D29413260ED65A
:102F0000F8C3244BC24A53A6E430002709D6F891EF
:102F1000B4CE23002809D6F8A1B05AAE132909D699
:102F2000F8E36AB14E022A0ED6F8D12C4AA2414AE1
:102F3000A22CA7022B0AD6F8F1341BB434672C0953
:102F4000D6F87913EB18002D09D6F8D9069D1B0089
:102F50002E09D6F8790BC71C022F0AD6F8B134EC2B
:102F60009AD3003010D6F8913089B2244BB2280998
:102F7000730A00310CD6F891504BD2B6418701321A
:102F80000CD6F8A72CCDB4301D7418330CD6B80766
:102F9000350CE5248B7602340DD6F8A1504BA2D225
:102FA00020A63901350DD6B807254D24294DB26824
:102FB00027360DD6F8112D4C13494AB26827370B26
:102FC000D6B807354CC36A4E02380DD6F8A72CC9BF
:102FD000A2294BB26827390DD6F8A72C892C6998FD
:102FE000E914003A0CD6F8F170CCC170CC21003B4A
:102FF0000BD6F8F170CC41B18E013C09D6F8B1B0D6
:10300000B91D063D0AD6F889833EE88C003E09D6F4
:10301000F8E3C67612003F0BD6F8A72CACE6604E5C
:1030200001400CD6F8A72C89942E52BC134110D61F
:10303000F8913089B2244B06254BB21C06420CD6BF
:10304000B8872C6ADAA2962127430BD6F8A72C4919
:10305000DBA29D00440BD6B8872CEA5F869C004516
:103060000DD6B807254D87284D071D06460CD6B846
:1030700007254D8728ADD300470CD6F8A72C494B20
:103080004A16ED044810D6B8B3244BB26450B224AB
:103090004BB21C064908D6F8C7B4E34E4A0BD6F823
:1030A00091316DAAE914004B0ED6B8B324AA64621C
:1030B0009245B51C064C09D6B8D35E071D064D0EC9
:1030C000D6B8B3244B2CDD922CC972184E0FD6B84B
:1030D000B3244BA4A4939225590E034F0ED6F8A700
:1030E0002CC9922CC9922CDA09500DD6B887284BDE
:1030F000B26488D23A0D510ED6F8A72CC9922CC9C9
:1031000092A639075210D6B887284BB26488922C01
:10311000AAE53000530CD6F8A72C89E7248B760259
:103120005409D6B8072DED9D02550FD6B8B3244BE0
:10313000B2244BB2248B76025610D6B8B3244BB2CD
:1031400028C9922C09730A00570ED6B8B3244BB283
:10315000A42F962C8701580FD6B8B3248B92B012A7
:10316000654996C300590CD6B8B3248B92306DA72D
:10317000005A0BD6B80735EC3AE830005B08D6F8B1
:10318000B7B4EB4E5C09D6B8D3B86B0E035D08D666
:10319000F8D7DE76025E0BD6F8913089B29C270014
:1031A0005F08D6F8F93CE8006008D6B8E29C5F00FA
:1031B000610DD6F8A97334245934E43000620DD679
:1031C000B8D38A2425592225894E630BD6F8A953F2
:1031D00096A459B413640ED6F8B134524A4A9644B0
:1031E000961C06650BD6F8A953960C4ABC13660CC0
:1031F000D6F8112D2A0E595A2701670FD6F8A94380
:1032000092255934A449164D00680ED6B8D38A24A5
:1032100025599225590E03690AD6F8911C531B773C
:10322000026A0BD6F8B11C539BBA49006B0DD6B895
:10323000D35A12455B54CB61006C08D6F8D51E7783
:10324000026D0BD6F8894A94F46F390C6E0ED6F8DD
:1032500089892425599225590E036F0CD6F8A95354
:1032600096644916ED04700FD6F8898924255922F1
:10327000258994A600710DD6F8A94A49C992C89229
:103280005600720BD6F889892425699D06730AD6E3
:10329000F8A9533C27434E740BD6F8D370C8D252CA
:1032A000A613750DD6F889599225591259721876B8
:1032B0000DD6F8895992454996843905770CD6F888
:1032C000895992257D4A7202780DD6F889599484DD
:1032D0009528CB6100790ED6F88959922591254D14
:1032E000B268027A0BD6F88983D838E830007B0CB4
:1032F000D6F8212DCEE430D661007C09D6F891B401
:10330000EF14007D0BD6F8E530D6E24CA7007E0A1C
:10331000D6F8A3A453CE1B00A007D6F8F92300A12A
:103320000AD6F8911C4CBB5300A20FD6F8F1704896
:103330006A49968443964300A30DD6F8112D2A8E30
:103340006994243A01A40DD6F88959B425D994E595
:103350003000A50ED6B8B3248B92301BB4B40E0146
:10336000A60BD6F891B40EA6750A00A70DD6F8A73D
:10337000748BB2285BA31D01A807D678EAFC01A9CB
:103380000CD6F8A72C6991926ED14EAA0DD6F89161
:10339000A9454B7264C8A900AB0ED6F8C9511225D5
:1033A000511665518E02AC09D6F81987346704AD01
:1033B00009D6F819879C1B00AE0ED6F8A72C591217
:1033C0002991922CDA09AF08D638069D9F01B00AE0
:1033D000D6F8913009731E01B10CD6F8F1341BB444
:1033E000341B7418B20BD6B8B4282C0E393700B37E
:1033F0000AD678E64C8E768E00B408D6F8C29C9F2A
:1034000000B50FD6F8895992255922258994830051
:10341000B610D6F88764499648C9922CC9921C0602
:10342000B708D6F85973AE00B808D6F8F929CC0019
:10343000B909D6B842B5B87304BA0CD6F8112D6ADA
:10344000D3A121A702BB0DD6F889511665511225CB
:10345000514EBC0DD67842B538855A120D690CBD57
:103460000DD67842B5B884491A863300BE0ED638D8
:10347000E430CEA4504BA221CD01BF0BD6F8911C55
:103480004CC35AB413C00FD678E270CA922C199468
:103490002CC97218C10FD6F8C270CA922C19942C7C
:1034A000C97218C210D6B8C2249BB2244B06254B51
:1034B000B21C06C311D678A224D1A62CC99241C948
:1034C000922C8701C410D678EAD094255932285915
:1034D00092E53000C510D6B8C2249BB2244B062515
:1034E0004BB21C06C60ED6F8912129350D43D4B433
:1034F000A300C70BD6F8A72C49DBA2B108C80ED68B
:1035000078C24149D3214AD3418701C90ED6F8A2D6
:103510004149D3214AD3418701CA0ED6B8B24149A5
:10352000D3214AD3418701CB0ED6784A8392A64352
:1035300094A6830E03CC0AD678E2704C1B7702CD9A
:103540000AD6F8C2704C1B7702CE0BD6B8C2241B29
:10355000D3C69D00CF0AD678EAD09836EE04D00CB8
:10356000D6B8872C6A59A22E434ED111D6B89228CC
:1035700089B2444A3A295992E53000D20ED678E20F
:1035800070CA922CC9922CDA09D30ED6F8C270CA2E
:10359000922CC9922CDA09D40FD6B8C2249BB2243B
:1035A0004BB2248B7602D510D6B89228C9A62CC966
:1035B000922CC9A29D00D60ED678EAD094255992B5
:1035C0002559B413D70DD6F8895994849528CB6121
:1035D00000D80ED6F8A7488994162991A29D00D943
:1035E0000ED678E2AC922559922559B413DA0ED64C
:1035F000F8C2AC922559922559B413DB0FD6B8C244
:103600002447B2244BB2248B7602DC0FD678EA48EA
:1036100096644996644916ED04DD0DD6F8C2AC9265
:10362000454998D62900DE0DD6B8D321CA92214A41
:10363000EB3400DF0ED6F8A72C892A59544B129D83
:1036400000E00ED678E21C9BA321C9A2218701E1EC
:103650000ED6F8C21C9BA321C9A2218701E20FD676
:10366000B8C22487E66848B268C86100E30FD6B8DC
:103670009228C9A1391A922C1A7218E40ED6F8931E
:103680001C9AA321C9A2218701E50FD6B8C2240C38
:10369000E76848B268C86100E60DD6F8A9439824E7
:1036A000C3940D3A0AE70CD6F8A95396A4593416D8
:1036B00001E80DD678E21C9BB26450E29D00E90D52
:1036C000D6F8C21C9BB26450E29D00EA0DD6B8C287
:1036D0002487A62C19947827EB0DD6F8931C9AB260
:1036E0006450E29D00EC0AD678E21C531B7702ED91
:1036F0000AD6B8C21C541B7702EE0BD6B8C2248778
:10370000D4C69D00EF0AD6F8931C521B7702F00C2A
:10371000D6B86D5396644916ED04F111D6B89228C7
:10372000C9914492922CC9922C8701F20DD678E26D
:103730001C9BB2244BB26827F30DD6F8C21C9BB277
:10374000244BB26827F40ED6B8C22487A62CC9929F
:103750002CDA09F50FD6B89228C9A1294BB2248BCF
:103760007602F60DD6F8931C9AB2244BB26827F76E
:103770000AD6F8F11C1A742867F80DD6F8A9431276
:10378000292D5232E404F90FD678E21CCA922CC9D2
:1037900092C892C300FA0FD6F8C21CCA922CC992E2
:1037A000C892C300FB10D6B8C22447B2244BB2243F
:1037B000B2E43000FC0FD6F8931CC9922CC992C811
:1037C00092C300FD0FD6F8A130AB64496449932C35
:1037D0009A00FE0FD6F8D17488B2244BB26488D216
:1037E00014FF10D6F8931CC9922C892C69924513AA
:1037F0000000000004FFFF0000BF000202030403FA
:103800000504060A00FE07FE07000142029207B304
:1038100020050062072107394367A80022079B5251
:10382000275901230D3D42AF4C69A86AA8322500F3
:10383000240B3D4237AF7AA7B42300250B3D422F1E
:10384000AAEEAA251300260C3D422FA79872956474
:10385000540127051953672808BB4237957501297C
:1038600008BB42279755092A0A2D4627A76AA8763A
:10387000002B0A2D4637A3386446112C079B3E4F78
:1038800095002D060D4E67082E079B3E2FAD042F89
:103890000B3D421F6594BB514600300A3D4237A79D
:1038A000DA4E7504310C3D4237CB94514619C5218F
:1038B000320C3D426FE58CA2CC190D01330C3D4218
:1038C000676894B3863A2D00340C3D423FCB54A632
:1038D000A1334A00350B3D42E746C9CC48A705361F
:1038E0000B3D4257E68C92A9D302370C3D426768E4
:1038F0009433CA35CA00380B3D426F659D56D66970
:1039000001390C3D426F65A95446394A003A0ABB59
:103910003E2FAD0CD34A003B09BB3E2FAD0C5509E1
:103920003C0ABC423FB6514619053D081D4A67682E
:1039300038043E0BBC4227A38C328A6D003F0A3DFF
:10394000426FE536CA7404400B3D426F65B99295EB
:10395000E102410B3D4237A75A8F917500420C3D61
:103960004267C42AA659C5A100430C3D426F658D2C
:1039700032CA28A705440D3D4267C42AA698628A28
:103980004301450C3D42E746198D94514643460D8F
:103990003D42E746198D9451461901470C3D426F4F
:1039A000658D328A3B2D0048093D4227DB63643B2D
:1039B0004908BB4267C5AE014A0C3D427767945146
:1039C000466594004B0B3D4227CB54EA14AB1C4C8C
:1039D0000E3D4227A38C32CA28A38C86004D0A3D97
:1039E0004227EBB592B6034E0A3D4227EBA992DC83
:1039F0003A4F093D426F65EFB400500D3D4267A458
:103A0000AC87CA28A38C00510A453E6F65AF6AC3D4
:103A100000520B3D4267A4AC872AAB1C530B3D42BE
:103A20006F650D37D46901540E3D4267C88C32CAA8
:103A300028A38C220055083D4227FB4E0B560B3D18
:103A40004227DBA94C31E508570A3D4227BB924A81
:103A50007700580A3D4227EB5457B50E590C3D42AA
:103A600027EB5467945146115A0A3D42676894BB4C
:103A7000D1105B08BB4267C4CE015C0D3D4227A359
:103A80000C33CC30C38C025D08BB4267768E005E7F
:103A9000071D5237A73A5F060D3E67086006125BA6
:103AA0002706610A2D426FC334741A01620C3D422D
:103AB00027A38C92A9A75200630A2D426F658D72CD
:103AC0005A00640B3D421F6594CC2D950A650A2D62
:103AD000426FE531325C00660C3D42575679C48C2A
:103AE00032CA00670C3D3A6F689D46463A2D006821
:103AF0000B3D4227A38C92A9ED006908BB422F23FE
:103B0000D91A6A0BCC3A3F635D4B9914006B0C3D9C
:103B10004227A38CB24CB3CA016C07BB4247F61ACA
:103B20006D0A2D4247B5545249076E082D42279918
:103B3000DA0E6F092D426F653B2D00700C3D3A2760
:103B4000997A2A95514600710B3D3ACFDC52A98CE7
:103B5000320A720B2D4227991A65941100730A2DAF
:103B6000426F65B8E15000740D3D422FA33C6246A0
:103B700019C5A80075082D42273B950A760A2D42E3
:103B800027EB54A61C0177092D42275B4975017864
:103B9000092D4227A7BAAA03790B3D3A279B4A650C
:103BA000A4D3027A082D4267E8F6107B0BBC42577B
:103BB0006594348A19097C063943E7087D0CBC42B8
:103BC00047A39891CA2849007E091D522FAA2413A1
:103BD00000A005006207A1073943270D01A20C3D93
:103BE0003E370F15534C79C408A30B3D4257567905
:103BF00067149502A40A2D4227A799E2CA01A50DD0
:103C0000453E27EB54C72133CA2802A6063943672D
:103C10000DA70B453E6F65343B374A0BA8068B5EFC
:103C20002705A90C3D426F6595A64A3A2D00AA0AC0
:103C3000B4466F44A56A3402AB0B2E42B78A29E61C
:103C4000986300AC07944A67E400AD068C4E6704A5
:103C5000AE0B3D426FE591E6D46901AF060D5E679C
:103C600008B0069B52AF0BB10B354237A338644600
:103C70007108B208AC4E4FC5E608B30AAC4E67A354
:103C8000A4D14800B406125B4F01B50A353E27DBCC
:103C900053A98C00B60E3D426F8C34525231C5147C
:103CA0005300B705094F27B806123B4F01B907ABC0
:103CB0004E2FC96ABA0AB4464F4599341C01BB0C51
:103CC0002E4227E698638A294600BC104E3E2F23D9
:103CD0000D33CC6866A4531C1906BD104E3E2F232D
:103CE0000D33CC686554C38C321ABE0E4D3E47C3AB
:103CF0009C619459A634320ABF0A3D4237D319E574
:103D0000D602C00C45422FC3BCB21E23EB00C10B30
:103D10004542BF5E598F917500C20C454237A7B826
:103D2000B21E23EB00C30C45422F2AB9B21E23EB6F
:103D300000C40B4542AFA656D663641DC50C454270
:103D400037A7B8B21E23EB00C60B3E4277A4B239A8
:103D5000466C0EC70D4D3A6F658D32CA28A75D03BC
:103D6000C80E45422F8F8D321A29A38C8600C90EAA
:103D700045423F8D8D321A29A38C8600CA0E4542DA
:103D8000378E8D321A29A38C8600CB0E4542AF1A8E
:103D90001B65345246190D01CC09C34227A7155B98
:103DA00003CD09C34237A5155B03CE09C342AF1A41
:103DB00029B606CF09C34227E5155B03D00D3D4266
:103DC00067C42A8E54A6381400D10B454237754F6C
:103DD00095E4D601D20B45422FC3BCB23B2D00D394
:103DE0000A4542BF5ED99D1600D40B454237A7B89D
:103DF000B23B2D00D50A454237355776A705D60A7E
:103E00004542AFA65676A705D7092D4227A7BAAADD
:103E100003D80B3D426FC52BCD991600D90A4542F8
:103E20002FC3DA3B2D00DA094542BFCCDE6901DB46
:103E30000B454237A78CB33B2D00DC0A4542AFC689
:103E4000D93B2D00DD0C4542BFCC3AD51965140194
:103E5000DE0E3D4227A391F2501965941100DF0B4D
:103E60003D426F6599CA2A2B05E00C45422FC34C91
:103E70006E98864E23E10B4542BF26374C43A7116F
:103E8000E20C454237A74C6D98864E23E30C454221
:103E900037B5A90DD3D06904E40B3D42AFA6364C2B
:103EA00043A711E50C454237A79C374C43A711E6C1
:103EB0000B2E426F64548D998700E70B3D3A6F6576
:103EC0008D72DA3500E80C45422FC34CAE3C468675
:103ED0000BE90B4542BF26571E23C305EA0C45429A
:103EE00037A74CAD3C46860BEB0B3D42AFA6561EAA
:103EF00023C305EC09C3422767245B03ED08C342D3
:103F0000AF86B235EE08C342AF2D5B03EF08BB426C
:103F10002765D91AF00B3D424743B9B29D1600F10F
:103F20000A454237B57132B51DF20B45422FC34CDD
:103F3000AE6CA705F30A4542BF2657B6D302F40B71
:103F4000454237A74CAD6CA705F50B454237B5A9DF
:103F500095EDB400F60A3D42AFA656B6D302F70976
:103F60002D463753435311F80A2D426FC895E6503A
:103F700000F90B45422FC34C65A75201FA0A45428E
:103F8000BFA6B253A900FB0B454237A78CB353A978
:103F900000FC0A3D42AFC6D9A95400FD0C4D3ABF02
:103FA000CCA65219E9B400FE0D453A27A391B23DC3
:103FB00054461901FF0D4D3AAFC6D9542A239D1618
:103FC0000000000004FFFF00001815A115C819FF2C
:103FD0001815A015C019FF1815AE15D5168015A80F
:103FE000163F15D316001540158D16141520160012
:103FF00015A115C815DA1612158116CF15D916F1A7
:1040000015DB1640152E15A415A619FF1815AF19A6
:10401000FF1815AE19FF00000001140A6464323263
:1040200000127A000004289610080000800040006A
:10403000E7FFFFFFFFFFFFFFFFFF3BFCFFFFFF2F3F
:10404000FBFFFFFFFFFFFFFFFFFFFF7FFEFFFF7F85
:10405000FEFFFFFFFFFFFFFFFFFFFFFFF7FFFF3F39
:10406000FFFFFFFFFFFFFFFFFFFFFFFFFFFFFFFF60
:10407000FFFFFFFFFFFFFFFFFFFFFFFFFFFFFFFF50
:10408000FFFFFFFFFFCBFFFFFFFFFFFFFFFFFFFF74
:10409000FFFFFF7FF0FFFFFFFFFFFFFFFFFFFFFFBF
:1040A000FFFFFFE7FFFFFFFFFFF7FBFFFFFFFFFF44
:1040B000FFFFFFFFFFFFFFFFFFFF3DFFFFFFFFFFD2
:1040C000FFFFFFFFFFFFFFFFFFFFFFEFFFFFFFFF10
:1040D000FFFFFFFFFFFFFFFFFFFFFFFFFFFFFFFFF0
:1040E000FFFFFFFFFFFFFFFFFFFFFFFFFFFFFFFFE0
:1040F000FFFFFFFFFFFFFFFFFFFFFFFFFFFFFFFFD0
:10410000FFFFFFFFFFFFFFFFFFFFFF7FFFFFFFFF3F
:10411000FFFFFFFFFFFFFFFFFFFFFFFFFFFFFDFFB1
:10412000FFFFFFFFFFFFFFFFFFFFFFFFFFFFFFFF9F
:10413000FFFFFFFFFFFFFFFFFFFFFFFFDFFFFBFFB3
:10414000FFFFFFFFFFFFFFFFFFFFFFFFFFFFFFFF7F
:104150007FFFFFFFFFFFFFFFFFFFFFFFFFFFF7FFF7
:10416000BFFFFFFFFFFFFFFFFFFFFFFF7FFFFFFF1F
:10417000FFFDFFFFFFFFFFFFFFFFFFFFFFFEFFFF52
:10418000FFFFFFFFFFFFFFFFFFFFFFFFFFFEFFFF40
:10419000FFFFFFFFFF7FF8FFFFFFFFFFFFFFFFFFB6
:1041A000FFFFFFFFFF39E0FFFFFFFFFFFFFDFFFF06
:1041B000FBFFFFFF7F0820FFFFFFFFFFFFFDFFFF6B
:1041C000FFFFFFFF1F4847FEFFFFFFFFFFFDFFFF51
:1041D000FDFFFFFF0F018FFFFFFFFFFFFFFFFFFF4F
:1041E000FDFFFFFF870018F9FFFFFFFFFFFFFFFF45
:1041F000FFFFFFFF070063E6FFFFFFFFFFFFFFFF7B
:10420000FEFFFFFF030846CEFFFFFFFFFFF7FFFFA4
:10421000FFFFFFFF110400C8FFFFFFFFFFFFFFFFCD
:10422000FFFFFFFF18E421C0FFFFFFFFFFFFFFFFBD
:10423000FFFFFF7F28F86380FFFFFFFFFFFFFFFF07
:10424000FFFFFF7F28F0C780FFFFFFFFFFFFFFFF9B
:10425000FDFFFF7F18F00780FFFFFFFFFFFFFFFF5D
:10426000FEFFFF3F10F001C0FFFFFFFFFFFBFFFF5E
:10427000FFFFFFFF006008C0FFFFFFFFFFFFFFFF22
:10428000FEFFFFFF00C0C0C0FFFFFFFFFFFBFFFFFF
:10429000BFFFFFFF01C0E0D3FFFFFFFFFFFFFFFFF6
:1042A000FFFFFFFF03C0FFE3FFDFFFFFFFFFFFFF95
:1042B000FFFFFFFF87FFFFE3FFFFFFFFFFFFFFFFA2
:1042C000FFFFFFFFCFFFFFFBFFFFFFFFFFFFFFFF32
:1042D000FFFFFFFFDFFFFFFFFFFFFFFFFFFFFFFF0E
:1042E000F9FFFFFF9FFFD8E3FFFFFFFBFFFDFFFF8D
:1042F000FBFFFFFF3F07DC03F0FFFFFFFFFFFFFFB8
:10430000FFFFFFFF7F70FF0380FFFFFFFFFFFFFF47
:10431000EFFFFFFFFF3FE00380FBFFFFFFFFFFFF1B
:104320009FFFFFFFFF0FF803C0E3FFFFFFFEFFFF4C
:10433000FFFFFFFFFFFFFF41C081FFFF7FFFFFFF88
:10434000FFFEFFFF3FFCFC41C001FEFFFFFFFFFF40
:10435000FFFDFFFF1FF8FF00C001FCFFFFFFFFEFA5
:10436000FFFFFFFF07F07F00E001F8FFDFFFFFFF27
:10437000FFFBFFFF03E03F40E001F0FFFFFFFFFF17
:10438000FFF7FFFF00801F60E040E0FFFFFFFFFF3F
:10439000FFEFFF7F40080EA0E020E0FFFFFFFFFFE0
:1043A000FFFFFF3F60180030E060C0FFFFFFFFFF2E
:1043B000FFFFF91F60080018E06080FFF7FFFFF7BC
:1043C000FFFFFF0FE0280004E02002FFFFFFFFF7E0
:1043D000FFFFFF07FC200003E080077FFEFFFFFFD9
:1043E000FFFFFE03FF208081E0810F7EFFFFFFFFC4
:1043F000FFFFFF813B20C0D0E0C10FFEFFFFFFFBAE
:10440000FFFFFF807F2060F0E0C10FFCFFFFFFFF98
:10441000FFFFFFC07F203878C3C10FFCFFFFFFFF05
:10442000FFFFFF20FB210CFCC3C11EFCFFFFFFFDB3
:10443000E6FFFFEFFFFFF7BFFFEF5B92967FFF0FF7
:10444000F7FFFFFFFFFFFFFFFFFFFFFFFFFDFFFF86
:10445000FEFFFFFFFFFFFFFFFFFFFFFFFFFFFF7FED
:10446000FEFFFFFFFFFFFFFFFFFFDFFFDFFFFFFF9D
:10447000FFFFFFFF6BFBFFFFFFFF7FFFFF9DF8FFCD
:10448000FFFFFFFFFFD777FF77FBFFFFFF7DFFFFFA
:10449000FFFFFF7FFEDFFF159F9BFFFFFEFFFFFF7C
:1044A000FFFFFFE7BFFFFF7FFFFFF5FFFFCF3FFFEE
:1044B000FFFFDAFDFFFFFFFFFFFF3DDFFFBFFF7FD5
:1044C000F7BFFFFFFFFFFFFFFBFFEFF7FFFFF77FE8
:1044D000FFFFFFFFFFFFFFFFFFFDFFFFFFFFFFFCF1
:1044E000FFFFFBFFFFFFFF7FFFFFFFFFFFFFDEFF81
:1044F000FFFFFFFFFFFFFFFFF7FFFFFFF5FFFE7F5F
:10450000FFFBFFFFFFFFFFFFFEFFFF7FFBFFB8FF8B
:10451000FFAFFFFFFFFFFFFFFEFFFFFFDEFF7F7F1D
:10452000FFEDFFFFDEFFFFFFFFFFF7FFFFFFF7FDE0
:10453000FFFFFFFFFFFFFFFFFFFFFFFFFFFFFBFF8F
:10454000FFDFFFBFFEFFFFFFFFF7FFDFFFFBFB7B90
:10455000BFFF7FFEFFFF07FFFFFFFFFF7FFFF7FDAE
:104560003FFDFBFFFF8F07FCFFFFFFFF7FFFDFED3E
:10457000F7FDF5FFFF8B60F8FFFFFFFFFFFBFFFF7D
:10458000FEDFFFFFFF81E0F1FFFFFFFFFFFEBFFB4C
:10459000EFFFFFFFFF18C0F3FFDFFFFFFFFBFFFF91
:1045A000FFFFFFFF7F007076FEFBFFFBFFFFDFFFDB
:1045B000FFFFFFFF3F80E0F8FCEFFFEFFFF53FFF5D
:1045C000FFFFFFFF1FC1C080F9FFFFFFFFFDFF7767
:1045D000FFFFBFFF8F611C00F8FFFFFFFFFB7FFEA7
:1045E000FDFFFFFF87883F0CF8DFBFFFFFFFFFFFE6
:1045F000FEFFFFEF87427F1CF8FFFFDFFFFFFF7F1B
:10460000FCFFFFFF8700FF00F8DFFEFFFFE3EFFF87
:10461000FFFFDFFF83037F00F8EFBFFFFFFFFFFF18
:10462000FFFFFFFF03020F00F8FFFFFEFFFFFFFF8A
:10463000FCDFFFFF0F00CC00F8DDFFFDFFFFFF7F79
:10464000FAFFFFD71F001C1CFCFFFFFFFFFFFFDF6F
:10465000F8FDFFDF1F001C3FFDFFFFFFFFDFFFCB6B
:10466000DEFFFFDF3F00FF3FFCFFFFFDFFFBFFFF23
:10467000FFFFFFBF7FFCFF3FFEFFFFFDFFF3FFFFDC
:10468000FEFFFD3FFFFCFFBFFFFFFEEFFFFBDFFF75
:10469000BFFFFFFFFEFDFFFFFFFFDFFDFFFFFF7F0F
:1046A000FFFDFFFFFEF9827BFFFFFFFDFFFBFF7FAA
:1046B000FFFFFEFFFD7BC13DF0FFFFFFFDFFFF7F22
:1046C000FFFF7FFFFBFFFF3E00FCFFFFFFFBFFBF85
:1046D000FF7FFFFFFFFF013E00FCFFFFFFFDFFBF6D
:1046E000F8FFFFFDFFF1803F009EFFFFFDF5FF7F1C
:1046F000FBFFFFFBFFE0FF1F000EFFFFFEFDFF7F44
:10470000FEFFFFFF3FC0CF0F060FF8FFFEFEFFFFCB
:10471000EFFFFFFF0780FF07040FF0FFFFFFFFDF42
:10472000B7FFFFFF0100FF030007E0FF7FFDFFDF92
:104730007FFFFFFF0000FE410007C0FF7BFFFF7F00
:104740007FFEFF7F0050F840020781FFBFFFFFFFA1
:10475000FFFEFF3F0058600086C301FFFFFFFFEE32
:10476000FFFFFE0F005C000081C304FFBFFFFFEFEF
:10477000FFFAFF07001E008082C302FEFFFFFFFF5B
:10478000FFF3FF03100F01C680C31FFC5FFFFFFE96
:10479000FFFFFF03FC8F3126848304F8BFFFFFEF88
:1047A000FEEFFF07FF87181E80C30EF8FFFFBF7FD5
:1047B000FFBFF1C7FF87001E80033FF8FFFFFFFF29
:1047C000FFEFFFC3FFC3001E80034EF8E7FFFFFFAC
:1047D000FFFFFFC1FFC1003E80030FF0F7FFDFFFC7
:1047E000FFFFFFE0FFC180FD87878FF0FFFFFFF332
:1047F000FFFFFCE0FF41E0FC8F070FF0FFFFBFFF72
:10480000FFFF7FE0FF4138F89F871FE0FFFFFFFBBE
:10481000FFFF7FC0EB410EF01F870FE0FFFFFFFDA2
:10482000FFFF3FC0C0C103E03F871EC0FFFFFFFF87
:10483000E6FFFFEFFFFFF7BFFFFFFFFF9F7FFF0FC9
:10484000F7FFFFFFFFFFFFFFFFC7FFFFFFFDFFFFBA
:10485000FEFFFFFFFFFFFFFFFFB6FFFFFFFFFF7F32
:10486000FEFFFFFFFFFFFFFFBFFFDFFFFFFFFFFFB9
:10487000FFFFFFFF6BFBFFFFBFFFC317FFBFF8FF8B
:10488000FFFFFFFFFFD777FFFFFFE030FC7FFFFF59
:10489000FFFFFF7FFEDFFF95B77F0060F8FFFFFFA0
:1048A000FFFFFFE7BFFFFFFFBB1F000CE0FFBBFFE9
:1048B000FFFFDAFDFFFFFFFFED0F3808A0DFFF7FEE
:1048C000F7BFFFFFFFFFFFFFF70F081806FEFF7F90
:1048D000FFFFFFFFFFFFFFFFFF070CD88CFFFEFF6E
:1048E000FFFFFBFFFFFFFF7FFF03C617F0F9FFFF8E
:1048F000FFFFFFFFFFFFEFA7FF81F217E0FBFFFFC6
:10490000FFFBFFFFFFFF5FFFFD88F08703FFFFFF57
:10491000FFAFFFFFFFDFEFFF7F9CF80F0FE47FDFAC
:10492000FFEDFFFFDEFFF7FE3FC8FC0F8EE0F7FF55
:10493000FFFFFFFFFFFFFDAD7F48F81F80C1FFFFB6
:10494000FFDFFFBFFEFFFCAF7D0C700080C2E7FC05
:10495000BFFF7FFEFFFFDE7F7F04601EA0C0DFFF82
:104960003FFDFBFFFF3FEFFF7F80E7BF00C0EFFF92
:10497000F7FDF5FFFFBFFFBF7F00708001E0FFFF85
:10498000FEDFFFFFFFDF37DFFF80F88003C0FF5F40
:10499000EFFFFFFFFFEF3FFEFBF0FFFF07C0DFFF72
:1049A000FFFFFFFFFDFF3FFCF5F9FFFF0FC077FFA3
:1049B000FFFFFFFFFFFF1FFCFDF9FFFF0FE0FFFF01
:1049C000FFFFFFFFFFFF1FFEFFFBFFFFCFF0BFF664
:1049D000FFFFBFFFFFF303FEFFE302FAEFF9FFFF64
:1049E000FDFFFFFFFF81C1FFFF33028326FDB7FFFD
:1049F000FEFFFFEFFFFFC1FFFF3FFF073EFDFFFF91
:104A0000FCFFFFFF3FFEE1FFFFBFFFC73FFFEFFFE0
:104A1000FFFFDFFF3FFFE1FF03FF03DC77FFFFFF47
:104A2000FFFFFFFF1FFFF10700F0009C67FFDFFFA4
:104A3000FCDFFFFF0FFE7B0000F023FF83FFFFFF83
:104A4000FAFFFFFF07CE1F0000E003FF8FFFFFFF0D
:104A5000F8FDFFFF03880F0000C0C7FF8FFFFFDFD7
:104A6000DEFFFFFF01100F30ADC0FF7F86FFFFFFAD
:104A7000FFFFFFFF00800332C782FF1F8FFFFFFF92
:104A8000FEFFFDFFC04100F6CC01FF8387FFFFFF63
:104A9000BFFFFF7FC00160FE7F080FC087FFBF7FA1
:104AA000FFFDFF3FF0077CFE760607F081FFFF3F2A
:104AB000FFFFFE1FFC1D787E3F180F7F00FFFFBF2A
:104AC000FFFFFF0FFC7920B21F081E0E00FFFFBF83
:104AD000FF7FFF07FFF962BC15187C0000FFFFBFD6
:104AE000F8FFFF03E7F4C4E6471B7C0000FEFFFF6E
:104AF000FBFFFF83F7FEF6D77F103C0016FCFFFF9D
:104B0000FEFFFF81F1C6FFF76F113E181EF8FF7F11
:104B1000EFFFFFE1B8C3F7E766353E9818F0FFDF17
:104B2000B7FFFFF0FC83FD76C3233EF078E0FFDFA4
:104B30007FFFFF60BEF3C9F6E2233E604CC0FFFE7C
:104B40007FFEFF005EBA2A5EF1613C20C600FFDFF7
:104B5000FFFE7F809DBFDFFE704078180300FF7F5F
:104B6000FFFF7E009E7F19FC3F00780003F0FFEFFF
:104B7000FFFAFF00CCBD00E43F00F88001FCFFEE2F
:104B8000FFF3FF01000000E03FFCFFC000FEF8EF74
:104B9000FFFFF70F000000C01DFEFF61003FF0FFA8
:104BA000FEEFFF3F000080C33CFCFF33C01FF0EF6F
:104BB000FFBFFBFF0000F8E33EF8F01FE007F0FF47
:104BC000FFEFFFFFFFF0FF417EF8FF0FF001E0F77E
:104BD000FFFFDEFFFFFFFF817EF0FF07F800E0FF31
:104BE000FF7FFBFFFFFFFF606FF0FF037C00C1FF53
:104BF000FF7FFFFFFFFFFFD0FBF03F003FC081FFC3
:104C0000FFFFD7FFFFFF7FE0F9E07F801F7081FF8C
:104C1000FFBFAEFFFFFF7FF0FEC13FC00FFC82FF72
:104C2000FFFF7F3FFFFF7FB0FF0302E007FE87FF2C
:104C3000E6FFFFEFFFFFF7BFFFFFFFFFFF7FFF0F65
:104C4000F7FFFFFFFFFFFFFFFFE73FFFFFFFFFFF54
:104C5000FEFFFFFFFFFFFFFFFFF60FFFFFFFFF7FDE
:104C6000FEFFFFFFFFFFFFFFBFFF0383F9FFFFFF13
:104C7000FFFFFFFFEBCFF7FFBFFF0000E3FFFCFFED
:104C8000FFFFFFFFFFCFDBFFFF7F0020C0FF7FFFA5
:104C9000FFFFFF7FFECFFF9BF73FC04080FFFFFF7E
:104CA000FFFFFFE7FFC7FFFFBB1F60C010FEBFFF96
:104CB000FFFFDAFDFFC7FFFFEC0F30C030FCFF7FC6
:104CC000F7BFFFFFFFC7FFFEF60FC8DF60FEFFFD67
:104CD000FFFFFFFFFFE7FFFFFF43C89F80EFFFFFDE
:104CE000FFFFFBFFFBE3FFFFFB21C63F0CFEFFFFC7
:104CF000FFFFFFFFB3E3EFA7FF60E23F3CF0FFEFF2
:104D0000FFFBFF7F3EE05FEFF520E37F3C80FFFF8E
:104D1000FFAFFF7F3FE0EFF7FF30E07F1086FFFF40
:104D2000FFEDFF3F3FF0FFF5FF108001008EFFFF1A
:104D3000FFFFFF3F7BF0FDAFFB0086790002FF7FA6
:104D4000FFDFFF3FFBF1FCAFFF01C0FD0100FFFAF9
:104D5000BFFFFF1FF3F8DE7FF701E0010600AF6D34
:104D60003FFDFB1FF07CEFFFFAE1FB070781FFFF30
:104D7000F7FDF51F20FEF7BFFFE3FFFF0F84FFFFE6
:104D8000FEDFFF1F00FEC7DFF7F3FFFF1F80FFFFFF
:104D9000EFFFFF1F00FEFFFFEBE7FFFF1F80FFFF9E
:104DA000FFFFFF1F08FEF7FFFFE70FFA1FC0BFFF5F
:104DB000FFFFFF0F00FEFDFFFFE70CE49FE3FFFE98
:104DC000FFFFFF0F007EF7FFFFE73C0E1EF3BFF76C
:104DD000FFFFBF0F00FEFBFFFF7FFE9F5FFAFF7F1D
:104DE000FDFFFF0F00FEFFFFFF7FFE9F7EFAFFFF2C
:104DF000FEFFFF0F0CFEFFFFFFFF0398CFFEFF7FBC
:104E0000FCFFFF0F08FEFF3F00FC07F0EFFEFF7FF7
:104E1000FFFFDF0F00FEFF0700C007FE077FFFFF59
:104E2000FFFFFF0F00FE7F0000C007FC07FFDFDF72
:104E3000FCDFFF1F08FE3F000080FFFF8FFFFFFF2A
:104E4000FAFFFF1F30F03F000800FFFF8CFFFFFF5D
:104E5000F8FDFF1F18F019000900FF0F8EDFFFDBC0
:104E6000DEFFDF1F3C6000B0FF02FF078FFFBFFFC8
:104E7000FFFFFF1FBC00007A270E0FC087FFFFFF58
:104E8000FEFFFD1FF80120F685133FF883FFFF7F2B
:104E9000BFFFFF3FF80130FE7F18FFFF80FFFFFFDD
:104EA000FFFDFF3FF08733FE7E1CBE1F00FFFFBFEC
:104EB000FFFFFE3FF83F7F7E3F180C0000FFFF7FA3
:104EC000FFFF7F3FB86972B21F10000008FFFFFFAD
:104ED000FF7FFF7FF07D62941F33000000FFFFFF24
:104EE000F8FFFF7FE0FCEFD6072300E003FEFF3F63
:104EF000FBFFFF7FE0FFF5F76763225D12FCFFFF1A
:104F0000FEFFFFFF20EEFFE76745701E10F8FFBBB6
:104F1000EFFFFFFF00C6FFF36247F81B38F0FFFF0B
:104F2000B7FFFFFF0182FDF3D3C7C0EE6CE0FFDFE8
:104F30007FFFFFFF01E0C876F383C06146C0FF7EBC
:104F40007FFEFFFF0780085FF18701200380FFDFFE
:104F5000FFFEFFFF1F0000FEF80FF11F03E0FFFD43
:104F6000FFFFBFFF7F0000FCFF2FF38701FCFFEF77
:104F7000FFFAFFFFFF0100FCFF3FC2C100FEFFFF81
:104F8000FFF3FFFFFF0F40B8FF3F8661007FFCFF8C
:104F9000FFFFF7FFFFFF7FE0DD1F0621C01FFCEFD3
:104FA000FEEFFFE7FFFF7FF0FC3F0C30E007FCFF68
:104FB000FFBFFB9EFFFF7FE07C7E0818F003F8F741
:104FC000FFEFFF7FD8FF3F687EEE180CF800F8F780
:104FD000FFFFDEFFBFFF3FB8FCFF10047E00F0FFC5
:104FE000FF7FFBFEFEFF1F60EF7F31023F00E0FF0F
:104FF000FFFFFBF6B7FF1FB8F7FF20811FC1E0FFDF
:10500000FFFFF7EF6FFF1FF8FFFFE1C08F63E0FFC7
:10501000FFBF9FFDFDEF0F7CFFDF63E043E0C0DFDC
:10502000FFFFFF3BFFF70FF87FDF41F071B0C37F59
:10503000E6FFFFEFF7C7B7BFFFFFC30377FFD75FF9
:10504000F7FFFFFFC7E0FFFFFFFFC30156FCFF7F35
:10505000FEFFFFFF07E0FFFFFFBF01008EF8FF7FAD
:10506000FEFFFFFF03E0FFFFFF9F117E06F1FFFF42
:10507000FFFFFFFF03E0FBEEFF8701FF04F0FFFFF0
:10508000FFFFFFFF07E0DFFFEF8709FF60FCFF7F07
:10509000FFFFFFFF07E0FFBFF7C388FFF0F8FFFF48
:1050A000FFFFFFE707E0FFFFFB4300FFE0E1FFFF3B
:1050B000FFFFDAFD07E0FFFFED030887C180FFFF78
:1050C000F7BFFFFF0FC0FFFFF7031C030008FEFF41
:1050D000FFFFFFFF0F80FFFFFF0300F30120FEFF34
:1050E000FFFFFBFF0F80FFFFEB83C1C30700FCFF47
:1050F000FFFFFFFF1F80FFA7F7C3FF070402FCFDB0
:10510000FFFBFFFF1F00FFFFB5E7FF1F8C02FC7FC7
:10511000FFAFFFFF1F04FEFFF7E7FFFF1F08FCFFC5
:10512000FFEDFFFF1F1CF8F7FFEFFFFF1F0CFCFF59
:10513000FFFFFFDF3F1CF0AFF9EF0DF83F04FEFF6C
:10514000FFDFFFFF3F38F0AF7DE71DFC3F00FEFFB4
:10515000BFFF7FEE3F30F0FFD7E7FFEF3F00FEFDE0
:105160003FFDFBFF7F70F0FFFFCFFF0F1E04FEFD32
:10517000F7FDF5FF7FF0E1FFFF9F071F9E07FFFF91
:10518000FEDFFFFF7E20E0FFFFDF033C5EC7BFFBCB
:10519000EFFFFFDF7F20C0FFFFDF033C7FE6BFFFA5
:1051A000FFFFFFFFFFD000FFFFFFFF7F2FE2BFFFEA
:1051B000FFFFFFEFFFE003FC83FF07FFF7F3FFFFB5
:1051C000FFFFFFFFFFC0077000E007FEE7F8FF7674
:1051D000FFFFBFFFFF4100000080EFFF03FEF7EE7F
:1051E000FDFFFFFFFF0130000080FFFF0FFFFFFF0B
:1051F000FEFFFFFFFFC1BF050080FF7FAEFFFFFF87
:10520000FCFFFFF7FFC3CF072483FF07C7FFFFBFE4
:10521000FFFFDFFFFF83C3E37FC50780C7FFEFFF0B
:10522000FFFFFFFFFF07E1FF3BC60FE0C7DFFFFF08
:10523000FCDFFFFFFF07E37F3B840FFFC3FFFF7F20
:10524000FAFFFFFFFF0F70172D04CF7FC0FFFFEFA6
:10525000F8FDFFFDFF0F70336D0C0000C0FFFFDF96
:10526000DEFFDFFFFF1F7E3EED090000C07BFFFF7A
:10527000FFFFFFFFFD3F7636FF190000C0FFFFFF75
:10528000FEFFFDFFFF3FF01FF3130000C0FFFF7F95
:10529000BFFFFFFFFD3FB087833338EEC1FFFFBF85
:1052A000FFFDFFEFFF7FF0A1C3233CFFC0FFFFFF27
:1052B000FFFFFEEFF97FB0C1E363FE7F80FFFF7F5A
:1052C000FFFF7FEFFFFF90FDF743FC1F02FFFFBFD3
:1052D000FF7FFF6FFFFF81FFF3C3F00703FEFFBFF8
:1052E000F8FFFFEFEFFF41FFFB81E00403FCFFFF4E
:1052F000FBFFFFFBBFFF43FB3F87218101FCFFBF9B
:10530000FEFFFFDF7FFF03FF5F07E1C000F8FFFF45
:10531000EFFFF7DFFFFD03FF5D1C83C000F0FF5FC1
:10532000B7FFFFBFFFFB03FF7F2F426000F7FFFFC8
:105330007FFFFF7FFFFFC1FFEF2F0630C0FFFFEFB2
:105340007FFEFF7FFEFFC1E9AC1D0618F0FFFF7D69
:10535000FFFEFFFFFDFFE0D9F03F0C1CF8CFFFFF81
:10536000FFFFBEFFE3FF601EFA770C0CFE81FFFF1C
:10537000FFFBFFFFFEFF605EFF7F08067F80FFEF01
:10538000FFFBFFFFFE7A709EFD3F18C33F00FFFF4B
:10539000FFFFF7DFFF7FF09EDCBF90E10F00FFE72C
:1053A000FEEFFFE7FB3FF8EEFCFFF0F007007EFFAB
:1053B000FFAFFB9FFF3F785E7DFE70FC010E7CFF20
:1053C000FFEFFF7FF03F780E7EFC21FE001FFCF711
:1053D000FFFFFEFFBF1F7C8F7CFE207F801AFCFF3B
:1053E000FF7FFBF6FF1F7C47EF7FA03FE01FFC7FA6
:1053F000FFFFFBFEFF0FFEE7FB7FE01FF003F8FF60
:10540000FFFFEEFFEF0FFEE0FD7FE007F078F0FF1B
:10541000FFFFCEFDFF07F7E8FE5FF8031C7EF0FFFD
:10542000FF7FFFBBFF07F6B0BF1FFC01AE7EE07F32
:10543000E6FFFFEF3F0CFCBFFFEF091FA6F9F75F88
:10544000F7FFFFFF3F38FCFFFFC70C7F56F3FFFF5E
:10545000FEFFFFFF7F18F8FFFF43867F52E7FF7FC5
:10546000FEFFFFFF7F00F8FFF763C27F60E6FF7F6C
:10547000FFFFFFFF7F08F0EFFF2380FFE0F0FFFF5B
:10548000FFFFFFFFFF80E0FFFF0386C3E0C1FFFFD8
:10549000FFFFFF7FFD00E02FF7038E01C000FFFF3D
:1054A000FFFFFFE7FF00C0FFFB03C0F90010FEFF96
:1054B000FFFFDAFDFF10C0FFEDE3E1E30128FEFD91
:1054C000F7BFFFFFFFE180FFF6E3FF030321FEF3D9
:1054D000FFFFFFFFFFE103FFFBF3FF0F0602FCFFEF
:1054E000FFFFFBFFF6E103FEFBF7FFFF0702FCFDFA
:1054F000FFFFFFFFFFE101FCF5F786FF0F02FCFF56
:10550000FFFBFFFFF74307FCB57706FC0F02FEFF2A
:10551000FFAFFFFFF7030FF8DE333FF61F00FF7FFB
:10552000FFEDFFFFEF033BF8FF87FFC70F00FFFF13
:10553000FFFFFFDFEF8767F8BBE7C1070F00FFFF43
:10554000FFDFFFFFEF8703F0FFEF3C0FE703FFEF05
:10555000BFFF7FEEDF0706F0FFEF003EA7C3FFFDB2
:105560003FFDFBFFDF07AEC0FFEF03FEB7F1FFFF1C
:10557000F7FDF5FFDF0F9F80FFFFFFDF17F1FFFF54
:10558000FEDFFFFFDF0F3E00FEFFC1FFFBF9BFFBA9
:10559000EFFFFFDFBF0FF80300FEC3FF79FCFFFF43
:1055A000FFFFFFFFBF1FFE0100E0FFFF00FFDFF76F
:1055B000FFFFFFEFBF1F907C00E0FFFF83FF7FFF37
:1055C000FFFFFFFFBF3F003F0FE0FF1FC3FFFFEFE5
:1055D000FFFFBFFF7F3FC0F87FE0FF81E3FFFFEEEB
:1055E000FDFFFFFF7F3F703D18E301E0E1FFFFFF9C
:1055F000FEFFFFFFFD7FB84F0CE103F8E1FFFFFE68
:10560000FCFFFFF7FE7EC00727C3F7FFE0FFFFFFA9
:10561000FFFFDFFFFFFE80E33F03E307E0FFEF7FD5
:10562000FFFFFFFFFFFDC0FB31020000F0EFFFFFB7
:10563000FCDFFFFFFFFDC17F70060000F0D7FFFF1A
:10564000FAFFFFFFFFFDC1C370460080F0FFFFEFD0
:10565000F8FDFFFFFFFBC1F32C04CD7FF0D7FFCF98
:10566000DEFFDFFFFFFBC3D1E60DFF7FF0F3FFBFDF
:10567000FFFFFFFFFFF783E1E309F743F0FFFF7F41
:10568000FEFFFDFFFFEF83F563183603E0FFFFFF2A
:10569000BFFFFFFFFDEF87F97F1A9F87C0FFFFBFA6
:1056A000FFFDFFFFFFDF8FFC7B111DC380FFFFFFAE
:1056B000FFFFFEEFFDDF0FFEF332DEC300FFFF7FD3
:1056C000FFFF7FEFFBDF1FD0E323FC6100FEFF7FC6
:1056D000FF7FFFEFFF7F3FE0FB61F83000FEFFFF41
:1056E000F8FFFFEFFF7F3FE0FB41701000FCFFFF82
:1056F000FBFFFFFFBFFF1FF03FC73018E0FFFFFFBA
:10570000FEFFFFFFBEFE1FF07F87700CF8FFFF7FDC
:10571000EFFFF7DFFFFF0FF45F860104FEFFFFD707
:10572000B7FFFFBFFFFB07FDFF070106FFF0FFDF2D
:105730007FFFFF7FFFFFC7F8DF0A03C33FE0FF7E65
:105740007FFEFFFFFEFF43FECE1706E10FC0FFFD09
:10575000FFFEFFFFFDFFE11AC33F84F807C0FFBF54
:10576000FFFFBF7FE3FF601CFE734CFC0180FFFF67
:10577000FFFBFFFF7FFF705DFF3F38FE8000FFEF04
:10578000FFFBFFFFFF7EF03FFB3F183F0000FFEFF6
:10579000FFFFF7FDFF3F309FDC3F981FC00FFEF774
:1057A000FEEFFFEFFF1F38FCFC2FF80FF80FFEFF96
:1057B000FFBFFF9EFF1F38FC3F1FF807F80FFCF7E5
:1057C000FFEFFF7FF80F380E7E1EF801FC1BF8FF7D
:1057D000FFFFFEFFFF07388EFC0EFC00FE3AF8FFCD
:1057E000FF7FFB7EFF033CC7EF057F80FF1FF0FBC1
:1057F000FFFFFBFFFF03BCE7F3813FC0FF43F0DF88
:10580000FFFFFEFFFF01EEE4FDC11FE8F778E0FFB8
:10581000FFFFCEEDFE008FB8FFE10FF81A7CC0FF4E
:10582000FFFFFD3F7F00CFBCFFF007BEAEFEC1FF14
:10583000E6FFFFEF3F08F1BF3F27F801FFF7FF77D3
:10584000F7FFFFFF7F78F3FF3F33FC83C7E7FFFFDE
:10585000FEFFFFFF7F78E0FF3F12FF830FFFF77F20
:10586000FEFFFFFF7F08E0BF3F00FE870FCCFFFF7A
:10587000FFFFFFFF7FF8C1FF3F009C07E390FFFFA2
:10588000FFFFFFFF7FE0C3FF3F300C008081FFFF81
:10589000FFFFFF7F7D4887EF3F00CE038080FFFF43
:1058A000FFFFFFE77F1886FF3B00EF071180FFFF38
:1058B000FFFFDAFDFF1000FF7DCF0F102080FFFFFC
:1058C000F7BFFFFFFFF000FF7EFF3F3030C0BF7F1C
:1058D000FFFFFFFFFFF007FFFFFFFF7F7082EFFD7D
:1058E000FFFFFBFFFFF00BFFFFFFFFFF20C0DFFF0D
:1058F000FFFFFF7FFFF001BFFF63FEFF00C0FFFF60
:10590000FFFBFFFFFFE007FF7500E0FF00E0FF6F18
:10591000FFAFFFFFFF800FFE7F7890FF60F0FFFF7B
:10592000FFEDFFFFFF011AFCFFFC3F7C7EF8F7EF65
:10593000FFFFFFDFFFC107F0FF0C3E7032FCFFFFEF
:10594000FFDFFFFFFFC103E0FFE7317833FEFFFD1C
:10595000BFFF7FEEFF0117C0FFC7C3FB317FE7FF2B
:105960003FFDFBFFFF030F80FF0FE0FF9FBFDFFD49
:10597000F7FDF5FFFE831FC780FFFF3FE7FFFFEF47
:10598000FEDFFFFFFF839E1F001FFC1FF03FBFFFD6
:10599000EFFFFFDFFE03D01C001EFC6FF8FFBFFF10
:1059A000FFFFFFFFFF076F1E08FEFF77FEFFDFFF11
:1059B000FFFFFFEFFF07E31E03FEFF7BFCEF7FFF10
:1059C000FFFFFFFFFF07F04E23FCFF3CF8FBFFFF4C
:1059D000FFFFBFFFFF0770E327FC1F7EF1FF7FEF94
:1059E000FDFFFFFFFF0F34F361E00100F0DFFFFF79
:1059F000FEFFFFFFFF0F97F366000000F8EFFFEFD9
:105A0000FCFFFFF7FF0FA72F43000000F8FFFF7F09
:105A1000FFFFDFFFFF1FE4FFD2000034F8F7EFFFC6
:105A2000FFFFFFFFFC1FE4FF91F8FF2BF8DFFFFFF4
:105A3000FCDFFFFFFF3FE4FA90D1FF29F8FFFFDF13
:105A4000FAFFFFFFFF3FE0D334F1FF19FCFFFF7BBC
:105A5000F8FDFFFFFE7FF0F026A3FF0BFCFFFFFF2A
:105A6000DEFFDFFFFF7F70D96622FF01FCFBFFFF37
:105A7000FFFFFFFFFDFF10EDE346FF30F0DBFFFF10
:105A8000FEFFFDFFFFFF01EC2B841718F0EFFFFF77
:105A9000BFFFFFFFFDFF03FF7F8C3B0CE0FBFFFF21
:105AA000FFFDFFEFFFFF0FFE7B8C0F06E0FFFF3FC8
:105AB000FFFFFE6FFDFF0FFF73080707C0EFFFBF7B
:105AC000FFFF7FEFFFFF87E3E3181F0380FFFFFF68
:105AD000FF7FFFEFFEFF87E1F3118201FFFFFFBFB2
